{
  "_format": "hh-sol-artifact-1",
  "contractName": "Marketplace",
  "sourceName": "src/solidity/contracts/Marketplace.sol",
  "abi": [
    {
      "inputs": [
        {
          "internalType": "address",
          "name": "nftContractAddress",
          "type": "address"
        },
        {
          "internalType": "uint256",
          "name": "_feeMarketplacePercent",
          "type": "uint256"
        },
        {
          "internalType": "uint256",
          "name": "_feeCollectionPercent",
          "type": "uint256"
        },
        {
          "internalType": "uint256",
          "name": "_feeRoyaltiesPercent",
          "type": "uint256"
        }
      ],
      "stateMutability": "nonpayable",
      "type": "constructor"
    },
    {
      "anonymous": false,
      "inputs": [
        {
          "indexed": true,
          "internalType": "uint256",
          "name": "tokenId",
          "type": "uint256"
        },
        {
          "indexed": false,
          "internalType": "address",
          "name": "nft",
          "type": "address"
        },
        {
          "indexed": false,
          "internalType": "uint256",
          "name": "price",
          "type": "uint256"
        },
        {
          "indexed": false,
          "internalType": "uint256",
          "name": "totalPrice",
          "type": "uint256"
        },
        {
          "indexed": true,
          "internalType": "address",
          "name": "seller",
          "type": "address"
        },
        {
          "indexed": true,
          "internalType": "address",
          "name": "buyer",
          "type": "address"
        }
      ],
      "name": "Bought",
      "type": "event"
    },
    {
      "anonymous": false,
      "inputs": [
        {
          "indexed": false,
          "internalType": "uint256",
          "name": "itemId",
          "type": "uint256"
        },
        {
          "indexed": false,
          "internalType": "uint256",
          "name": "tokenId",
          "type": "uint256"
        },
        {
          "indexed": false,
          "internalType": "uint256",
          "name": "price",
          "type": "uint256"
        },
        {
          "indexed": true,
          "internalType": "address",
          "name": "seller",
          "type": "address"
        }
      ],
      "name": "ItemOnSale",
      "type": "event"
    },
    {
      "anonymous": false,
      "inputs": [
        {
          "indexed": false,
          "internalType": "uint256",
          "name": "tokenId",
          "type": "uint256"
        },
        {
          "indexed": true,
          "internalType": "address",
          "name": "nft",
          "type": "address"
        },
        {
          "indexed": false,
          "internalType": "uint256",
          "name": "price",
          "type": "uint256"
        },
        {
          "indexed": true,
          "internalType": "address",
          "name": "seller",
          "type": "address"
        }
      ],
      "name": "Offered",
      "type": "event"
    },
    {
      "anonymous": false,
      "inputs": [
        {
          "indexed": false,
          "internalType": "address",
          "name": "account",
          "type": "address"
        }
      ],
      "name": "Paused",
      "type": "event"
    },
    {
      "anonymous": false,
      "inputs": [
        {
          "indexed": false,
          "internalType": "address",
          "name": "account",
          "type": "address"
        }
      ],
      "name": "Unpaused",
      "type": "event"
    },
    {
      "inputs": [
        {
          "internalType": "uint256",
          "name": "feePercent",
          "type": "uint256"
        }
      ],
      "name": "changeFeePercent",
      "outputs": [],
      "stateMutability": "nonpayable",
      "type": "function"
    },
    {
      "inputs": [
        {
          "internalType": "uint256",
          "name": "_feeRoyaltiesPercent",
          "type": "uint256"
        }
      ],
      "name": "changeFeeRoyaltiesPercent",
      "outputs": [],
      "stateMutability": "nonpayable",
      "type": "function"
    },
    {
      "inputs": [],
      "name": "claimEarns",
      "outputs": [],
      "stateMutability": "nonpayable",
      "type": "function"
    },
    {
      "inputs": [],
      "name": "collectionCount",
      "outputs": [
        {
          "internalType": "uint256",
          "name": "_value",
          "type": "uint256"
        }
      ],
      "stateMutability": "view",
      "type": "function"
    },
    {
      "inputs": [],
      "name": "feeCollectionPercent",
      "outputs": [
        {
          "internalType": "uint256",
          "name": "",
          "type": "uint256"
        }
      ],
      "stateMutability": "view",
      "type": "function"
    },
    {
      "inputs": [],
      "name": "feeMarketplaceAccount",
      "outputs": [
        {
          "internalType": "address payable",
          "name": "",
          "type": "address"
        }
      ],
      "stateMutability": "view",
      "type": "function"
    },
    {
      "inputs": [],
      "name": "feeMarketplacePercent",
      "outputs": [
        {
          "internalType": "uint256",
          "name": "",
          "type": "uint256"
        }
      ],
      "stateMutability": "view",
      "type": "function"
    },
    {
      "inputs": [],
      "name": "feeRoyaltiesPercent",
      "outputs": [
        {
          "internalType": "uint256",
          "name": "",
          "type": "uint256"
        }
      ],
      "stateMutability": "view",
      "type": "function"
    },
    {
      "inputs": [
        {
          "internalType": "address",
          "name": "_address",
          "type": "address"
        }
      ],
      "name": "getAccountsBalance",
      "outputs": [
        {
          "internalType": "uint256",
          "name": "",
          "type": "uint256"
        }
      ],
      "stateMutability": "view",
      "type": "function"
    },
    {
      "inputs": [],
      "name": "getContractOwner",
      "outputs": [
        {
          "internalType": "address",
          "name": "",
          "type": "address"
        }
      ],
      "stateMutability": "view",
      "type": "function"
    },
    {
      "inputs": [
        {
          "internalType": "uint256",
          "name": "tokenId",
          "type": "uint256"
        }
      ],
      "name": "getTotalFeeCollection",
      "outputs": [
        {
          "internalType": "uint256",
          "name": "",
          "type": "uint256"
        }
      ],
      "stateMutability": "view",
      "type": "function"
    },
    {
      "inputs": [
        {
          "internalType": "uint256",
          "name": "tokenId",
          "type": "uint256"
        }
      ],
      "name": "getTotalFeeMarketplace",
      "outputs": [
        {
          "internalType": "uint256",
          "name": "",
          "type": "uint256"
        }
      ],
      "stateMutability": "view",
      "type": "function"
    },
    {
      "inputs": [
        {
          "internalType": "uint256",
          "name": "tokenId",
          "type": "uint256"
        }
      ],
      "name": "getTotalFeeRoyalties",
      "outputs": [
        {
          "internalType": "uint256",
          "name": "",
          "type": "uint256"
        }
      ],
      "stateMutability": "view",
      "type": "function"
    },
    {
      "inputs": [
        {
          "internalType": "uint256",
          "name": "tokenId",
          "type": "uint256"
        }
      ],
      "name": "getTotalPrice",
      "outputs": [
        {
          "internalType": "uint256",
          "name": "",
          "type": "uint256"
        }
      ],
      "stateMutability": "view",
      "type": "function"
    },
    {
      "inputs": [
        {
          "internalType": "uint256",
          "name": "",
          "type": "uint256"
        }
      ],
      "name": "items",
      "outputs": [
        {
          "internalType": "uint256",
          "name": "tokenId",
          "type": "uint256"
        },
        {
          "internalType": "uint256",
          "name": "collectionId",
          "type": "uint256"
        },
        {
          "internalType": "contract IERC721",
          "name": "nft",
          "type": "address"
        },
        {
          "internalType": "uint256",
          "name": "price",
          "type": "uint256"
        },
        {
          "internalType": "uint256",
          "name": "latestPrice",
          "type": "uint256"
        },
        {
          "internalType": "address payable",
          "name": "seller",
          "type": "address"
        },
        {
          "internalType": "bool",
          "name": "onSale",
          "type": "bool"
        }
      ],
      "stateMutability": "view",
      "type": "function"
    },
    {
      "inputs": [
        {
          "components": [
            {
              "internalType": "string",
              "name": "tokenURI",
              "type": "string"
            },
            {
              "internalType": "uint256",
              "name": "price",
              "type": "uint256"
            }
          ],
          "internalType": "struct Marketplace.CollectionData[]",
          "name": "collectionData",
          "type": "tuple[]"
        },
        {
          "internalType": "address payable",
          "name": "collectionOwner",
          "type": "address"
        },
        {
          "internalType": "uint256",
          "name": "percentageEarnCollection",
          "type": "uint256"
        }
      ],
      "name": "mintCollection",
      "outputs": [],
      "stateMutability": "nonpayable",
      "type": "function"
    },
    {
      "inputs": [],
      "name": "pause",
      "outputs": [],
      "stateMutability": "nonpayable",
      "type": "function"
    },
    {
      "inputs": [],
      "name": "paused",
      "outputs": [
        {
          "internalType": "bool",
          "name": "",
          "type": "bool"
        }
      ],
      "stateMutability": "view",
      "type": "function"
    },
    {
      "inputs": [
        {
          "internalType": "uint256",
          "name": "tokenId",
          "type": "uint256"
        }
      ],
      "name": "purchaseToken",
      "outputs": [],
      "stateMutability": "payable",
      "type": "function"
    },
    {
      "inputs": [
        {
          "internalType": "uint256",
          "name": "tokenId",
          "type": "uint256"
        },
        {
          "internalType": "uint256",
          "name": "price",
          "type": "uint256"
        }
      ],
      "name": "setItemOnSale",
      "outputs": [],
      "stateMutability": "nonpayable",
      "type": "function"
    },
    {
      "inputs": [],
      "name": "tokenCount",
      "outputs": [
        {
          "internalType": "uint256",
          "name": "",
          "type": "uint256"
        }
      ],
      "stateMutability": "view",
      "type": "function"
    },
    {
      "inputs": [],
      "name": "unpause",
      "outputs": [],
      "stateMutability": "nonpayable",
      "type": "function"
    }
  ],
  "bytecode": "0x60e06040523480156200001157600080fd5b5060405162003ae138038062003ae1833981810160405281019062000037919062000156565b60016000819055506000600160006101000a81548160ff021916908315150217905550336001806101000a81548173ffffffffffffffffffffffffffffffffffffffff021916908373ffffffffffffffffffffffffffffffffffffffff1602179055508373ffffffffffffffffffffffffffffffffffffffff1660808173ffffffffffffffffffffffffffffffffffffffff1660601b815250503373ffffffffffffffffffffffffffffffffffffffff1660a08173ffffffffffffffffffffffffffffffffffffffff1660601b81525050826002819055508160c08181525050806003819055505050505062000234565b600081519050620001398162000200565b92915050565b60008151905062000150816200021a565b92915050565b600080600080608085870312156200016d57600080fd5b60006200017d8782880162000128565b945050602062000190878288016200013f565b9350506040620001a3878288016200013f565b9250506060620001b6878288016200013f565b91505092959194509250565b6000620001cf82620001d6565b9050919050565b600073ffffffffffffffffffffffffffffffffffffffff82169050919050565b6000819050919050565b6200020b81620001c2565b81146200021757600080fd5b50565b6200022581620001f6565b81146200023157600080fd5b50565b60805160601c60a05160601c60c051613838620002a9600039600081816106ea0152610a9b01526000818161170501528181611f2b0152612221015260008181610d5b01528181610f03015281816110a1015281816111690152818161144b01528181611bf20152611cdd01526138386000f3fe6080604052600436106101355760003560e01c80639f181b5e116100ab578063ca7dd3751161006f578063ca7dd375146103d5578063d57f966b14610412578063e08ce3be1461043d578063e9342cd81461047a578063edc5fec4146104b7578063f4039b72146104e057610135565b80639f181b5e146102f9578063a548a76f14610324578063bfb231d21461034d578063c1b155ef14610390578063c2db2c42146103b957610135565b806345c77844116100fd57806345c778441461020d5780635c975abb1461024a578063662fc088146102755780638456cb59146102a057806389768e14146102b75780638a14d4e4146102ce57610135565b8063275425471461013a57806334eddf3e14610165578063354095501461018e5780633f4ba83a146101cb578063442890d5146101e2575b600080fd5b34801561014657600080fd5b5061014f61050b565b60405161015c9190612f00565b60405180910390f35b34801561017157600080fd5b5061018c60048036038101906101879190612803565b610511565b005b34801561019a57600080fd5b506101b560048036038101906101b09190612803565b6105ec565b6040516101c29190612f00565b60405180910390f35b3480156101d757600080fd5b506101e0610757565b005b3480156101ee57600080fd5b506101f76107ef565b6040516102049190612b9a565b60405180910390f35b34801561021957600080fd5b50610234600480360381019061022f9190612773565b610817565b6040516102419190612f00565b60405180910390f35b34801561025657600080fd5b5061025f6108ce565b60405161026c9190612ca5565b60405180910390f35b34801561028157600080fd5b5061028a6108e5565b6040516102979190612f00565b60405180910390f35b3480156102ac57600080fd5b506102b56108eb565b005b3480156102c357600080fd5b506102cc610983565b005b3480156102da57600080fd5b506102e3610a99565b6040516102f09190612f00565b60405180910390f35b34801561030557600080fd5b5061030e610abd565b60405161031b9190612f00565b60405180910390f35b34801561033057600080fd5b5061034b6004803603810190610346919061279c565b610ac3565b005b34801561035957600080fd5b50610374600480360381019061036f9190612803565b61123e565b6040516103879796959493929190612f44565b60405180910390f35b34801561039c57600080fd5b506103b760048036038101906103b29190612803565b6112cd565b005b6103d360048036038101906103ce9190612803565b6113a8565b005b3480156103e157600080fd5b506103fc60048036038101906103f79190612803565b611d2b565b6040516104099190612f00565b60405180910390f35b34801561041e57600080fd5b50610427611e21565b6040516104349190612f00565b60405180910390f35b34801561044957600080fd5b50610464600480360381019061045f9190612803565b611e2d565b6040516104719190612f00565b60405180910390f35b34801561048657600080fd5b506104a1600480360381019061049c9190612803565b611f0a565b6040516104ae9190612f00565b60405180910390f35b3480156104c357600080fd5b506104de60048036038101906104d99190612855565b611fce565b005b3480156104ec57600080fd5b506104f561221f565b6040516105029190612bb5565b60405180910390f35b60035481565b60018054906101000a900473ffffffffffffffffffffffffffffffffffffffff1673ffffffffffffffffffffffffffffffffffffffff163373ffffffffffffffffffffffffffffffffffffffff161461059f576040517f08c379a000000000000000000000000000000000000000000000000000000000815260040161059690612da0565b60405180910390fd5b600081116105e2576040517f08c379a00000000000000000000000000000000000000000000000000000000081526004016105d990612e40565b60405180910390fd5b8060028190555050565b6000806000905060006008600085815260200190815260200160002060009054906101000a900473ffffffffffffffffffffffffffffffffffffffff169050600073ffffffffffffffffffffffffffffffffffffffff168173ffffffffffffffffffffffffffffffffffffffff16141580156106ca57503073ffffffffffffffffffffffffffffffffffffffff166005600086815260200190815260200160002060050160009054906101000a900473ffffffffffffffffffffffffffffffffffffffff1673ffffffffffffffffffffffffffffffffffffffff1614155b1561074d57600560008581526020019081526020016000206003015460647f000000000000000000000000000000000000000000000000000000000000000060646107159190613088565b6005600088815260200190815260200160002060030154610736919061310f565b61074091906130de565b61074a9190613169565b91505b8192505050919050565b60018054906101000a900473ffffffffffffffffffffffffffffffffffffffff1673ffffffffffffffffffffffffffffffffffffffff163373ffffffffffffffffffffffffffffffffffffffff16146107e5576040517f08c379a00000000000000000000000000000000000000000000000000000000081526004016107dc90612da0565b60405180910390fd5b6107ed612243565b565b600060018054906101000a900473ffffffffffffffffffffffffffffffffffffffff16905090565b60003373ffffffffffffffffffffffffffffffffffffffff168273ffffffffffffffffffffffffffffffffffffffff1614610887576040517f08c379a000000000000000000000000000000000000000000000000000000000815260040161087e90612d60565b60405180910390fd5b600760008373ffffffffffffffffffffffffffffffffffffffff1673ffffffffffffffffffffffffffffffffffffffff168152602001908152602001600020549050919050565b6000600160009054906101000a900460ff16905090565b60025481565b60018054906101000a900473ffffffffffffffffffffffffffffffffffffffff1673ffffffffffffffffffffffffffffffffffffffff163373ffffffffffffffffffffffffffffffffffffffff1614610979576040517f08c379a000000000000000000000000000000000000000000000000000000000815260040161097090612da0565b60405180910390fd5b6109816122e5565b565b6000600760003373ffffffffffffffffffffffffffffffffffffffff1673ffffffffffffffffffffffffffffffffffffffff16815260200190815260200160002054905060008111610a0a576040517f08c379a0000000000000000000000000000000000000000000000000000000008152600401610a0190612ee0565b60405180910390fd5b6000600760003373ffffffffffffffffffffffffffffffffffffffff1673ffffffffffffffffffffffffffffffffffffffff168152602001908152602001600020819055503373ffffffffffffffffffffffffffffffffffffffff166108fc829081150290604051600060405180830381858888f19350505050158015610a95573d6000803e3d6000fd5b5050565b7f000000000000000000000000000000000000000000000000000000000000000081565b60065481565b60026000541415610b09576040517f08c379a0000000000000000000000000000000000000000000000000000000008152600401610b0090612ea0565b60405180910390fd5b600260008190555060018054906101000a900473ffffffffffffffffffffffffffffffffffffffff1673ffffffffffffffffffffffffffffffffffffffff163373ffffffffffffffffffffffffffffffffffffffff1614610b9f576040517f08c379a0000000000000000000000000000000000000000000000000000000008152600401610b9690612da0565b60405180910390fd5b6000835111610be3576040517f08c379a0000000000000000000000000000000000000000000000000000000008152600401610bda90612d80565b60405180910390fd5b60008110158015610bf5575060648111155b610c34576040517f08c379a0000000000000000000000000000000000000000000000000000000008152600401610c2b90612ec0565b60405180910390fd5b610c3e6004612387565b60005b8351811015611230576000848281518110610c85577f4e487b7100000000000000000000000000000000000000000000000000000000600052603260045260246000fd5b6020026020010151600001515111610cd2576040517f08c379a0000000000000000000000000000000000000000000000000000000008152600401610cc990612de0565b60405180910390fd5b6000848281518110610d0d577f4e487b7100000000000000000000000000000000000000000000000000000000600052603260045260246000fd5b60200260200101516020015111610d59576040517f08c379a0000000000000000000000000000000000000000000000000000000008152600401610d5090612d40565b60405180910390fd5b7f000000000000000000000000000000000000000000000000000000000000000073ffffffffffffffffffffffffffffffffffffffff1663d0def52133868481518110610dcf577f4e487b7100000000000000000000000000000000000000000000000000000000600052603260045260246000fd5b6020026020010151600001516040518363ffffffff1660e01b8152600401610df8929190612c3e565b602060405180830381600087803b158015610e1257600080fd5b505af1158015610e26573d6000803e3d6000fd5b505050506040513d601f19601f82011682018060405250810190610e4a919061282c565b600681905550600073ffffffffffffffffffffffffffffffffffffffff168373ffffffffffffffffffffffffffffffffffffffff1614610edf57610e906006548461239d565b6000821115610ede5781600960008573ffffffffffffffffffffffffffffffffffffffff1673ffffffffffffffffffffffffffffffffffffffff168152602001908152602001600020819055505b5b6040518060e001604052806006548152602001610efc6004612495565b81526020017f000000000000000000000000000000000000000000000000000000000000000073ffffffffffffffffffffffffffffffffffffffff168152602001858381518110610f76577f4e487b7100000000000000000000000000000000000000000000000000000000600052603260045260246000fd5b6020026020010151602001518152602001600081526020013073ffffffffffffffffffffffffffffffffffffffff16815260200160011515815250600560006006548152602001908152602001600020600082015181600001556020820151816001015560408201518160020160006101000a81548173ffffffffffffffffffffffffffffffffffffffff021916908373ffffffffffffffffffffffffffffffffffffffff160217905550606082015181600301556080820151816004015560a08201518160050160006101000a81548173ffffffffffffffffffffffffffffffffffffffff021916908373ffffffffffffffffffffffffffffffffffffffff16021790555060c08201518160050160146101000a81548160ff0219169083151502179055509050507f000000000000000000000000000000000000000000000000000000000000000073ffffffffffffffffffffffffffffffffffffffff166323b872dd33306006546040518463ffffffff1660e01b81526004016110fe93929190612c07565b600060405180830381600087803b15801561111857600080fd5b505af115801561112c573d6000803e3d6000fd5b5050505060018054906101000a900473ffffffffffffffffffffffffffffffffffffffff1673ffffffffffffffffffffffffffffffffffffffff167f000000000000000000000000000000000000000000000000000000000000000073ffffffffffffffffffffffffffffffffffffffff167f10f1b72b2e817956e912bed19a620c275e526fc6088975d0c498d788277facef6006548785815181106111fb577f4e487b7100000000000000000000000000000000000000000000000000000000600052603260045260246000fd5b602002602001015160200151604051611215929190612f1b565b60405180910390a38080611228906132c4565b915050610c41565b506001600081905550505050565b60056020528060005260406000206000915090508060000154908060010154908060020160009054906101000a900473ffffffffffffffffffffffffffffffffffffffff16908060030154908060040154908060050160009054906101000a900473ffffffffffffffffffffffffffffffffffffffff16908060050160149054906101000a900460ff16905087565b60018054906101000a900473ffffffffffffffffffffffffffffffffffffffff1673ffffffffffffffffffffffffffffffffffffffff163373ffffffffffffffffffffffffffffffffffffffff161461135b576040517f08c379a000000000000000000000000000000000000000000000000000000000815260040161135290612da0565b60405180910390fd5b6000811161139e576040517f08c379a000000000000000000000000000000000000000000000000000000000815260040161139590612e80565b60405180910390fd5b8060038190555050565b600260005414156113ee576040517f08c379a00000000000000000000000000000000000000000000000000000000081526004016113e590612ea0565b60405180910390fd5b60026000819055506113fe6108ce565b1561143e576040517f08c379a000000000000000000000000000000000000000000000000000000000815260040161143590612dc0565b60405180910390fd5b6000811180156114eb57507f000000000000000000000000000000000000000000000000000000000000000073ffffffffffffffffffffffffffffffffffffffff16639f181b5e6040518163ffffffff1660e01b815260040160206040518083038186803b1580156114af57600080fd5b505afa1580156114c3573d6000803e3d6000fd5b505050506040513d601f19601f820116820180604052508101906114e7919061282c565b8111155b61152a576040517f08c379a000000000000000000000000000000000000000000000000000000000815260040161152190612d20565b60405180910390fd5b61153381611d2b565b341015611575576040517f08c379a000000000000000000000000000000000000000000000000000000000815260040161156c90612d00565b60405180910390fd5b6005600082815260200190815260200160002060050160149054906101000a900460ff166115d8576040517f08c379a00000000000000000000000000000000000000000000000000000000081526004016115cf90612e60565b60405180910390fd5b6000600560008381526020019081526020016000206040518060e001604052908160008201548152602001600182015481526020016002820160009054906101000a900473ffffffffffffffffffffffffffffffffffffffff1673ffffffffffffffffffffffffffffffffffffffff1673ffffffffffffffffffffffffffffffffffffffff16815260200160038201548152602001600482015481526020016005820160009054906101000a900473ffffffffffffffffffffffffffffffffffffffff1673ffffffffffffffffffffffffffffffffffffffff1673ffffffffffffffffffffffffffffffffffffffff1681526020016005820160149054906101000a900460ff161515151581525050905060006116f483611d2b565b90506116ff83611f0a565b600760007f000000000000000000000000000000000000000000000000000000000000000073ffffffffffffffffffffffffffffffffffffffff1673ffffffffffffffffffffffffffffffffffffffff168152602001908152602001600020600082825461176d9190613088565b9250508190555061177d83611d2b565b600560008581526020019081526020016000206004018190555060006117a2846105ec565b90506000600860008560000151815260200190815260200160002060009054906101000a900473ffffffffffffffffffffffffffffffffffffffff16905060008211801561181d5750600073ffffffffffffffffffffffffffffffffffffffff168173ffffffffffffffffffffffffffffffffffffffff1614155b801561188b57503073ffffffffffffffffffffffffffffffffffffffff166005600087815260200190815260200160002060050160009054906101000a900473ffffffffffffffffffffffffffffffffffffffff1673ffffffffffffffffffffffffffffffffffffffff1614155b156118ef57611899856105ec565b600760008373ffffffffffffffffffffffffffffffffffffffff1673ffffffffffffffffffffffffffffffffffffffff16815260200190815260200160002060008282546118e79190613088565b925050819055505b6000600a60008660000151815260200190815260200160002060009054906101000a900473ffffffffffffffffffffffffffffffffffffffff169050600061193687611e2d565b9050600073ffffffffffffffffffffffffffffffffffffffff168273ffffffffffffffffffffffffffffffffffffffff1614156119805761197b8660000151336124a3565b6119e1565b60008111156119e05780600760008473ffffffffffffffffffffffffffffffffffffffff1673ffffffffffffffffffffffffffffffffffffffff16815260200190815260200160002060008282546119d89190613088565b925050819055505b5b336005600089815260200190815260200160002060050160006101000a81548173ffffffffffffffffffffffffffffffffffffffff021916908373ffffffffffffffffffffffffffffffffffffffff16021790555060006005600089815260200190815260200160002060050160146101000a81548160ff0219169083151502179055506000866060015190503073ffffffffffffffffffffffffffffffffffffffff168760a0015173ffffffffffffffffffffffffffffffffffffffff161415611b96576000600960008673ffffffffffffffffffffffffffffffffffffffff1673ffffffffffffffffffffffffffffffffffffffff1681526020019081526020016000205490506000811115611b9457600088606001516064836064611b099190613088565b8b60600151611b18919061310f565b611b2291906130de565b611b2c9190613169565b905080600760008873ffffffffffffffffffffffffffffffffffffffff1673ffffffffffffffffffffffffffffffffffffffff1681526020019081526020016000206000828254611b7d9190613088565b925050819055508083611b909190613169565b9250505b505b80600760008960a0015173ffffffffffffffffffffffffffffffffffffffff1673ffffffffffffffffffffffffffffffffffffffff1681526020019081526020016000206000828254611be99190613088565b925050819055507f000000000000000000000000000000000000000000000000000000000000000073ffffffffffffffffffffffffffffffffffffffff166323b872dd8860a00151338a600001516040518463ffffffff1660e01b8152600401611c5593929190612bd0565b600060405180830381600087803b158015611c6f57600080fd5b505af1158015611c83573d6000803e3d6000fd5b505050503373ffffffffffffffffffffffffffffffffffffffff168760a0015173ffffffffffffffffffffffffffffffffffffffff16897f8b4c9c8a607d67b321582dd8461041b1dc2ceeca70c8b7f37f8e02095cf2e76d7f00000000000000000000000000000000000000000000000000000000000000008b606001518b604051611d1193929190612c6e565b60405180910390a450505050505050600160008190555050565b600080611d3783611f0a565b90506000611d44846105ec565b90506000611d5185611e2d565b90503073ffffffffffffffffffffffffffffffffffffffff166005600087815260200190815260200160002060050160009054906101000a900473ffffffffffffffffffffffffffffffffffffffff1673ffffffffffffffffffffffffffffffffffffffff161415611dde5760056000868152602001908152602001600020600301549350505050611e1c565b8082846005600089815260200190815260200160002060030154611e029190613088565b611e0c9190613088565b611e169190613088565b93505050505b919050565b60048060000154905081565b600080600090506000600a600085815260200190815260200160002060009054906101000a900473ffffffffffffffffffffffffffffffffffffffff169050600073ffffffffffffffffffffffffffffffffffffffff168173ffffffffffffffffffffffffffffffffffffffff1614611f0057600560008581526020019081526020016000206003015460646003546064611ec89190613088565b6005600088815260200190815260200160002060030154611ee9919061310f565b611ef391906130de565b611efd9190613169565b91505b8192505050919050565b60008060009050600073ffffffffffffffffffffffffffffffffffffffff167f000000000000000000000000000000000000000000000000000000000000000073ffffffffffffffffffffffffffffffffffffffff1614611fc557600560008481526020019081526020016000206003015460646002546064611f8d9190613088565b6005600087815260200190815260200160002060030154611fae919061310f565b611fb891906130de565b611fc29190613169565b90505b80915050919050565b60026000541415612014576040517f08c379a000000000000000000000000000000000000000000000000000000000815260040161200b90612ea0565b60405180910390fd5b60026000819055506120246108ce565b15612064576040517f08c379a000000000000000000000000000000000000000000000000000000000815260040161205b90612dc0565b60405180910390fd5b3373ffffffffffffffffffffffffffffffffffffffff166005600084815260200190815260200160002060050160009054906101000a900473ffffffffffffffffffffffffffffffffffffffff1673ffffffffffffffffffffffffffffffffffffffff1614612108576040517f08c379a00000000000000000000000000000000000000000000000000000000081526004016120ff90612cc0565b60405180910390fd5b6000811161214b576040517f08c379a000000000000000000000000000000000000000000000000000000000815260040161214290612d40565b60405180910390fd5b80600560008481526020019081526020016000206003018190555060016005600084815260200190815260200160002060050160146101000a81548160ff0219169083151502179055503373ffffffffffffffffffffffffffffffffffffffff167ff26537a6e5a17eabfee9773407055c5ce0cd8b36ad2f658f5e819a1f556d5150836005600086815260200190815260200160002060000154600560008781526020019081526020016000206003015460405161220b93929190612fb3565b60405180910390a260016000819055505050565b7f000000000000000000000000000000000000000000000000000000000000000081565b61224b6108ce565b61228a576040517f08c379a000000000000000000000000000000000000000000000000000000000815260040161228190612ce0565b60405180910390fd5b6000600160006101000a81548160ff0219169083151502179055507f5db9ee0a495bf2e6ff9c91a7834c1ba4fdd244a5e8aa4e537bd38aeae4b073aa6122ce61259b565b6040516122db9190612b9a565b60405180910390a1565b6122ed6108ce565b1561232d576040517f08c379a000000000000000000000000000000000000000000000000000000000815260040161232490612dc0565b60405180910390fd5b60018060006101000a81548160ff0219169083151502179055507f62e78cea01bee320cd4e420270b5ea74000d11b0c9f74754ebdbfc544b05a25861237061259b565b60405161237d9190612b9a565b60405180910390a1565b6001816000016000828254019250508190555050565b600073ffffffffffffffffffffffffffffffffffffffff16600a600084815260200190815260200160002060009054906101000a900473ffffffffffffffffffffffffffffffffffffffff1673ffffffffffffffffffffffffffffffffffffffff161461243f576040517f08c379a000000000000000000000000000000000000000000000000000000000815260040161243690612e20565b60405180910390fd5b806008600084815260200190815260200160002060006101000a81548173ffffffffffffffffffffffffffffffffffffffff021916908373ffffffffffffffffffffffffffffffffffffffff1602179055505050565b600081600001549050919050565b600073ffffffffffffffffffffffffffffffffffffffff16600a600084815260200190815260200160002060009054906101000a900473ffffffffffffffffffffffffffffffffffffffff1673ffffffffffffffffffffffffffffffffffffffff1614612545576040517f08c379a000000000000000000000000000000000000000000000000000000000815260040161253c90612e00565b60405180910390fd5b80600a600084815260200190815260200160002060006101000a81548173ffffffffffffffffffffffffffffffffffffffff021916908373ffffffffffffffffffffffffffffffffffffffff1602179055505050565b600033905090565b60006125b66125b18461300f565b612fea565b905080838252602082019050828560208602820111156125d557600080fd5b60005b8581101561261f57813567ffffffffffffffff8111156125f757600080fd5b80860161260489826126e5565b855260208501945060208401935050506001810190506125d8565b5050509392505050565b600061263c6126378461303b565b612fea565b90508281526020810184848401111561265457600080fd5b61265f848285613251565b509392505050565b600081359050612676816137bd565b92915050565b60008135905061268b816137d4565b92915050565b600082601f8301126126a257600080fd5b81356126b28482602086016125a3565b91505092915050565b600082601f8301126126cc57600080fd5b81356126dc848260208601612629565b91505092915050565b6000604082840312156126f757600080fd5b6127016040612fea565b9050600082013567ffffffffffffffff81111561271d57600080fd5b612729848285016126bb565b600083015250602061273d84828501612749565b60208301525092915050565b600081359050612758816137eb565b92915050565b60008151905061276d816137eb565b92915050565b60006020828403121561278557600080fd5b600061279384828501612667565b91505092915050565b6000806000606084860312156127b157600080fd5b600084013567ffffffffffffffff8111156127cb57600080fd5b6127d786828701612691565b93505060206127e88682870161267c565b92505060406127f986828701612749565b9150509250925092565b60006020828403121561281557600080fd5b600061282384828501612749565b91505092915050565b60006020828403121561283e57600080fd5b600061284c8482850161275e565b91505092915050565b6000806040838503121561286857600080fd5b600061287685828601612749565b925050602061288785828601612749565b9150509250929050565b61289a816131f7565b82525050565b6128a9816131af565b82525050565b6128b88161319d565b82525050565b6128c7816131c1565b82525050565b6128d681613209565b82525050565b60006128e78261306c565b6128f18185613077565b9350612901818560208601613260565b61290a8161339a565b840191505092915050565b6000612922602d83613077565b915061292d826133ab565b604082019050919050565b6000612945601483613077565b9150612950826133fa565b602082019050919050565b6000612968603383613077565b915061297382613423565b604082019050919050565b600061298b601383613077565b915061299682613472565b602082019050919050565b60006129ae601f83613077565b91506129b98261349b565b602082019050919050565b60006129d1602783613077565b91506129dc826134c4565b604082019050919050565b60006129f4601b83613077565b91506129ff82613513565b602082019050919050565b6000612a17601583613077565b9150612a228261353c565b602082019050919050565b6000612a3a601083613077565b9150612a4582613565565b602082019050919050565b6000612a5d601b83613077565b9150612a688261358e565b602082019050919050565b6000612a80602383613077565b9150612a8b826135b7565b604082019050919050565b6000612aa3602483613077565b9150612aae82613606565b604082019050919050565b6000612ac6602283613077565b9150612ad182613655565b604082019050919050565b6000612ae9601483613077565b9150612af4826136a4565b602082019050919050565b6000612b0c602b83613077565b9150612b17826136cd565b604082019050919050565b6000612b2f601f83613077565b9150612b3a8261371c565b602082019050919050565b6000612b52602b83613077565b9150612b5d82613745565b604082019050919050565b6000612b75601683613077565b9150612b8082613794565b602082019050919050565b612b94816131ed565b82525050565b6000602082019050612baf60008301846128af565b92915050565b6000602082019050612bca60008301846128a0565b92915050565b6000606082019050612be56000830186612891565b612bf260208301856128af565b612bff6040830184612b8b565b949350505050565b6000606082019050612c1c60008301866128af565b612c2960208301856128af565b612c366040830184612b8b565b949350505050565b6000604082019050612c5360008301856128af565b8181036020830152612c6581846128dc565b90509392505050565b6000606082019050612c8360008301866128af565b612c906020830185612b8b565b612c9d6040830184612b8b565b949350505050565b6000602082019050612cba60008301846128be565b92915050565b60006020820190508181036000830152612cd981612915565b9050919050565b60006020820190508181036000830152612cf981612938565b9050919050565b60006020820190508181036000830152612d198161295b565b9050919050565b60006020820190508181036000830152612d398161297e565b9050919050565b60006020820190508181036000830152612d59816129a1565b9050919050565b60006020820190508181036000830152612d79816129c4565b9050919050565b60006020820190508181036000830152612d99816129e7565b9050919050565b60006020820190508181036000830152612db981612a0a565b9050919050565b60006020820190508181036000830152612dd981612a2d565b9050919050565b60006020820190508181036000830152612df981612a50565b9050919050565b60006020820190508181036000830152612e1981612a73565b9050919050565b60006020820190508181036000830152612e3981612a96565b9050919050565b60006020820190508181036000830152612e5981612ab9565b9050919050565b60006020820190508181036000830152612e7981612adc565b9050919050565b60006020820190508181036000830152612e9981612aff565b9050919050565b60006020820190508181036000830152612eb981612b22565b9050919050565b60006020820190508181036000830152612ed981612b45565b9050919050565b60006020820190508181036000830152612ef981612b68565b9050919050565b6000602082019050612f156000830184612b8b565b92915050565b6000604082019050612f306000830185612b8b565b612f3d6020830184612b8b565b9392505050565b600060e082019050612f59600083018a612b8b565b612f666020830189612b8b565b612f7360408301886128cd565b612f806060830187612b8b565b612f8d6080830186612b8b565b612f9a60a08301856128a0565b612fa760c08301846128be565b98975050505050505050565b6000606082019050612fc86000830186612b8b565b612fd56020830185612b8b565b612fe26040830184612b8b565b949350505050565b6000612ff4613005565b90506130008282613293565b919050565b6000604051905090565b600067ffffffffffffffff82111561302a5761302961336b565b5b602082029050602081019050919050565b600067ffffffffffffffff8211156130565761305561336b565b5b61305f8261339a565b9050602081019050919050565b600081519050919050565b600082825260208201905092915050565b6000613093826131ed565b915061309e836131ed565b9250827fffffffffffffffffffffffffffffffffffffffffffffffffffffffffffffffff038211156130d3576130d261330d565b5b828201905092915050565b60006130e9826131ed565b91506130f4836131ed565b9250826131045761310361333c565b5b828204905092915050565b600061311a826131ed565b9150613125836131ed565b9250817fffffffffffffffffffffffffffffffffffffffffffffffffffffffffffffffff048311821515161561315e5761315d61330d565b5b828202905092915050565b6000613174826131ed565b915061317f836131ed565b9250828210156131925761319161330d565b5b828203905092915050565b60006131a8826131cd565b9050919050565b60006131ba826131cd565b9050919050565b60008115159050919050565b600073ffffffffffffffffffffffffffffffffffffffff82169050919050565b6000819050919050565b60006132028261322d565b9050919050565b60006132148261321b565b9050919050565b6000613226826131cd565b9050919050565b60006132388261323f565b9050919050565b600061324a826131cd565b9050919050565b82818337600083830152505050565b60005b8381101561327e578082015181840152602081019050613263565b8381111561328d576000848401525b50505050565b61329c8261339a565b810181811067ffffffffffffffff821117156132bb576132ba61336b565b5b80604052505050565b60006132cf826131ed565b91507fffffffffffffffffffffffffffffffffffffffffffffffffffffffffffffffff8214156133025761330161330d565b5b600182019050919050565b7f4e487b7100000000000000000000000000000000000000000000000000000000600052601160045260246000fd5b7f4e487b7100000000000000000000000000000000000000000000000000000000600052601260045260246000fd5b7f4e487b7100000000000000000000000000000000000000000000000000000000600052604160045260246000fd5b6000601f19601f8301169050919050565b7f796f752063616e277420736574206f6e2073616c65206974656d73206f66206160008201527f6e6f74686572206f776e65727300000000000000000000000000000000000000602082015250565b7f5061757361626c653a206e6f7420706175736564000000000000000000000000600082015250565b7f6e6f7420656e6f676820657468657220746f20636f766572206974656d20707260008201527f69636520616e64206d61726b6574206665657300000000000000000000000000602082015250565b7f6974656d20646f65736e27742065786973747300000000000000000000000000600082015250565b7f5072696365206d7573742062652067726561746572207468616e207a65726f00600082015250565b7f596f752063616e206e6f742061636365737320736f6d656f6e6520656c73652060008201527f62616c616e636500000000000000000000000000000000000000000000000000602082015250565b7f746f6b656e5572697320616e6420707269636573206e65656465640000000000600082015250565b7f596f7520617265206e6f7420746865206f776e65720000000000000000000000600082015250565b7f5061757361626c653a2070617573656400000000000000000000000000000000600082015250565b7f546f6b656e20555249206d757374206e6f7420626520656d7074790000000000600082015250565b7f546f6b656e20616c726561647920686173206120726f79616c74696573206f7760008201527f6e65720000000000000000000000000000000000000000000000000000000000602082015250565b7f546f6b656e20616c726561647920686173206120636f6c6c656374696f6e206f60008201527f776e657200000000000000000000000000000000000000000000000000000000602082015250565b7f4665652070657263656e74206d7573742062652067726561746572207468616e60008201527f2030000000000000000000000000000000000000000000000000000000000000602082015250565b7f546f6b656e206973206e6f74206f6e2073616c65000000000000000000000000600082015250565b7f46656520526f79616c7469652070657263656e74206d7573742062652067726560008201527f61746572207468616e2030000000000000000000000000000000000000000000602082015250565b7f5265656e7472616e637947756172643a207265656e7472616e742063616c6c00600082015250565b7f50657263656e74616765204561726e20436f6c6c656374696f6e206d7573742060008201527f6265203020746f20313030000000000000000000000000000000000000000000602082015250565b7f596f7520646f206e6f74206861766520666f756e647300000000000000000000600082015250565b6137c68161319d565b81146137d157600080fd5b50565b6137dd816131af565b81146137e857600080fd5b50565b6137f4816131ed565b81146137ff57600080fd5b5056fea2646970667358221220c7f96b89fe3739e68668764c01cfd33f6f753c105c345d2ea7f072582dfccfe164736f6c63430008040033",
  "linkReferences": {},
  "deployedLinkReferences": {}
}