{
  "_format": "hh-sol-artifact-1",
  "contractName": "NFT",
  "sourceName": "src/solidity/contracts/NFT.sol",
  "abi": [
    {
      "inputs": [],
      "stateMutability": "nonpayable",
      "type": "constructor"
    },
    {
      "anonymous": false,
      "inputs": [
        {
          "indexed": true,
          "internalType": "address",
          "name": "owner",
          "type": "address"
        },
        {
          "indexed": true,
          "internalType": "address",
          "name": "approved",
          "type": "address"
        },
        {
          "indexed": true,
          "internalType": "uint256",
          "name": "tokenId",
          "type": "uint256"
        }
      ],
      "name": "Approval",
      "type": "event"
    },
    {
      "anonymous": false,
      "inputs": [
        {
          "indexed": true,
          "internalType": "address",
          "name": "owner",
          "type": "address"
        },
        {
          "indexed": true,
          "internalType": "address",
          "name": "operator",
          "type": "address"
        },
        {
          "indexed": false,
          "internalType": "bool",
          "name": "approved",
          "type": "bool"
        }
      ],
      "name": "ApprovalForAll",
      "type": "event"
    },
    {
      "anonymous": false,
      "inputs": [
        {
          "indexed": true,
          "internalType": "address",
          "name": "from",
          "type": "address"
        },
        {
          "indexed": true,
          "internalType": "address",
          "name": "to",
          "type": "address"
        },
        {
          "indexed": true,
          "internalType": "uint256",
          "name": "tokenId",
          "type": "uint256"
        }
      ],
      "name": "Transfer",
      "type": "event"
    },
    {
      "inputs": [
        {
          "internalType": "address",
          "name": "to",
          "type": "address"
        },
        {
          "internalType": "uint256",
          "name": "tokenId",
          "type": "uint256"
        }
      ],
      "name": "approve",
      "outputs": [],
      "stateMutability": "nonpayable",
      "type": "function"
    },
    {
      "inputs": [
        {
          "internalType": "address",
          "name": "owner",
          "type": "address"
        }
      ],
      "name": "balanceOf",
      "outputs": [
        {
          "internalType": "uint256",
          "name": "",
          "type": "uint256"
        }
      ],
      "stateMutability": "view",
      "type": "function"
    },
    {
      "inputs": [
        {
          "internalType": "uint256",
          "name": "tokenId",
          "type": "uint256"
        }
      ],
      "name": "getApproved",
      "outputs": [
        {
          "internalType": "address",
          "name": "",
          "type": "address"
        }
      ],
      "stateMutability": "view",
      "type": "function"
    },
    {
      "inputs": [
        {
          "internalType": "address",
          "name": "owner",
          "type": "address"
        },
        {
          "internalType": "address",
          "name": "operator",
          "type": "address"
        }
      ],
      "name": "isApprovedForAll",
      "outputs": [
        {
          "internalType": "bool",
          "name": "",
          "type": "bool"
        }
      ],
      "stateMutability": "view",
      "type": "function"
    },
    {
      "inputs": [
        {
          "internalType": "address",
          "name": "_from",
          "type": "address"
        },
        {
          "internalType": "string",
          "name": "_tokenURI",
          "type": "string"
        }
      ],
      "name": "mint",
      "outputs": [
        {
          "internalType": "uint256",
          "name": "",
          "type": "uint256"
        }
      ],
      "stateMutability": "nonpayable",
      "type": "function"
    },
    {
      "inputs": [],
      "name": "name",
      "outputs": [
        {
          "internalType": "string",
          "name": "",
          "type": "string"
        }
      ],
      "stateMutability": "view",
      "type": "function"
    },
    {
      "inputs": [
        {
          "internalType": "uint256",
          "name": "tokenId",
          "type": "uint256"
        }
      ],
      "name": "ownerOf",
      "outputs": [
        {
          "internalType": "address",
          "name": "",
          "type": "address"
        }
      ],
      "stateMutability": "view",
      "type": "function"
    },
    {
      "inputs": [
        {
          "internalType": "address",
          "name": "from",
          "type": "address"
        },
        {
          "internalType": "address",
          "name": "to",
          "type": "address"
        },
        {
          "internalType": "uint256",
          "name": "tokenId",
          "type": "uint256"
        }
      ],
      "name": "safeTransferFrom",
      "outputs": [],
      "stateMutability": "nonpayable",
      "type": "function"
    },
    {
      "inputs": [
        {
          "internalType": "address",
          "name": "from",
          "type": "address"
        },
        {
          "internalType": "address",
          "name": "to",
          "type": "address"
        },
        {
          "internalType": "uint256",
          "name": "tokenId",
          "type": "uint256"
        },
        {
          "internalType": "bytes",
          "name": "_data",
          "type": "bytes"
        }
      ],
      "name": "safeTransferFrom",
      "outputs": [],
      "stateMutability": "nonpayable",
      "type": "function"
    },
    {
      "inputs": [
        {
          "internalType": "address",
          "name": "operator",
          "type": "address"
        },
        {
          "internalType": "bool",
          "name": "approved",
          "type": "bool"
        }
      ],
      "name": "setApprovalForAll",
      "outputs": [],
      "stateMutability": "nonpayable",
      "type": "function"
    },
    {
      "inputs": [
        {
          "internalType": "bytes4",
          "name": "interfaceId",
          "type": "bytes4"
        }
      ],
      "name": "supportsInterface",
      "outputs": [
        {
          "internalType": "bool",
          "name": "",
          "type": "bool"
        }
      ],
      "stateMutability": "view",
      "type": "function"
    },
    {
      "inputs": [],
      "name": "symbol",
      "outputs": [
        {
          "internalType": "string",
          "name": "",
          "type": "string"
        }
      ],
      "stateMutability": "view",
      "type": "function"
    },
    {
      "inputs": [],
      "name": "tokenCount",
      "outputs": [
        {
          "internalType": "uint256",
          "name": "_value",
          "type": "uint256"
        }
      ],
      "stateMutability": "view",
      "type": "function"
    },
    {
      "inputs": [
        {
          "internalType": "uint256",
          "name": "tokenId",
          "type": "uint256"
        }
      ],
      "name": "tokenURI",
      "outputs": [
        {
          "internalType": "string",
          "name": "",
          "type": "string"
        }
      ],
      "stateMutability": "view",
      "type": "function"
    },
    {
      "inputs": [
        {
          "internalType": "address",
          "name": "from",
          "type": "address"
        },
        {
          "internalType": "address",
          "name": "to",
          "type": "address"
        },
        {
          "internalType": "uint256",
          "name": "tokenId",
          "type": "uint256"
        }
      ],
      "name": "transferFrom",
      "outputs": [],
      "stateMutability": "nonpayable",
      "type": "function"
    }
  ],
  "bytecode": "0x60806040523480156200001157600080fd5b506040518060400160405280601081526020017f47616d696e67204b6172647a204e4654000000000000000000000000000000008152506040518060400160405280600581526020017f474b52445a000000000000000000000000000000000000000000000000000000815250816000908051906020019062000096929190620000f9565b508060019080519060200190620000af929190620000f9565b50505033600860006101000a81548173ffffffffffffffffffffffffffffffffffffffff021916908373ffffffffffffffffffffffffffffffffffffffff1602179055506200020e565b8280546200010790620001a9565b90600052602060002090601f0160209004810192826200012b576000855562000177565b82601f106200014657805160ff191683800117855562000177565b8280016001018555821562000177579182015b828111156200017657825182559160200191906001019062000159565b5b5090506200018691906200018a565b5090565b5b80821115620001a55760008160009055506001016200018b565b5090565b60006002820490506001821680620001c257607f821691505b60208210811415620001d957620001d8620001df565b5b50919050565b7f4e487b7100000000000000000000000000000000000000000000000000000000600052602260045260246000fd5b612d44806200021e6000396000f3fe608060405234801561001057600080fd5b50600436106100f55760003560e01c806370a0823111610097578063b88d4fde11610066578063b88d4fde14610284578063c87b56dd146102a0578063d0def521146102d0578063e985e9c514610300576100f5565b806370a08231146101fc57806395d89b411461022c5780639f181b5e1461024a578063a22cb46514610268576100f5565b8063095ea7b3116100d3578063095ea7b31461017857806323b872dd1461019457806342842e0e146101b05780636352211e146101cc576100f5565b806301ffc9a7146100fa57806306fdde031461012a578063081812fc14610148575b600080fd5b610114600480360381019061010f9190611d85565b610330565b60405161012191906121ae565b60405180910390f35b610132610412565b60405161013f91906121c9565b60405180910390f35b610162600480360381019061015d9190611dd7565b6104a4565b60405161016f9190612147565b60405180910390f35b610192600480360381019061018d9190611d49565b610529565b005b6101ae60048036038101906101a99190611bef565b610641565b005b6101ca60048036038101906101c59190611bef565b6106a1565b005b6101e660048036038101906101e19190611dd7565b6106c1565b6040516101f39190612147565b60405180910390f35b61021660048036038101906102119190611b8a565b610773565b604051610223919061240b565b60405180910390f35b61023461082b565b60405161024191906121c9565b60405180910390f35b6102526108bd565b60405161025f919061240b565b60405180910390f35b610282600480360381019061027d9190611cb9565b6108c9565b005b61029e60048036038101906102999190611c3e565b6108df565b005b6102ba60048036038101906102b59190611dd7565b610941565b6040516102c791906121c9565b60405180910390f35b6102ea60048036038101906102e59190611cf5565b610a93565b6040516102f7919061240b565b60405180910390f35b61031a60048036038101906103159190611bb3565b610b5b565b60405161032791906121ae565b60405180910390f35b60007f80ac58cd000000000000000000000000000000000000000000000000000000007bffffffffffffffffffffffffffffffffffffffffffffffffffffffff1916827bffffffffffffffffffffffffffffffffffffffffffffffffffffffff191614806103fb57507f5b5e139f000000000000000000000000000000000000000000000000000000007bffffffffffffffffffffffffffffffffffffffffffffffffffffffff1916827bffffffffffffffffffffffffffffffffffffffffffffffffffffffff1916145b8061040b575061040a82610bef565b5b9050919050565b60606000805461042190612661565b80601f016020809104026020016040519081016040528092919081815260200182805461044d90612661565b801561049a5780601f1061046f5761010080835404028352916020019161049a565b820191906000526020600020905b81548152906001019060200180831161047d57829003601f168201915b5050505050905090565b60006104af82610c59565b6104ee576040517f08c379a00000000000000000000000000000000000000000000000000000000081526004016104e59061236b565b60405180910390fd5b6004600083815260200190815260200160002060009054906101000a900473ffffffffffffffffffffffffffffffffffffffff169050919050565b6000610534826106c1565b90508073ffffffffffffffffffffffffffffffffffffffff168373ffffffffffffffffffffffffffffffffffffffff1614156105a5576040517f08c379a000000000000000000000000000000000000000000000000000000000815260040161059c906123ab565b60405180910390fd5b8073ffffffffffffffffffffffffffffffffffffffff166105c4610cc5565b73ffffffffffffffffffffffffffffffffffffffff1614806105f357506105f2816105ed610cc5565b610b5b565b5b610632576040517f08c379a0000000000000000000000000000000000000000000000000000000008152600401610629906122ab565b60405180910390fd5b61063c8383610ccd565b505050565b61065261064c610cc5565b82610d86565b610691576040517f08c379a0000000000000000000000000000000000000000000000000000000008152600401610688906123cb565b60405180910390fd5b61069c838383610e64565b505050565b6106bc838383604051806020016040528060008152506108df565b505050565b6000806002600084815260200190815260200160002060009054906101000a900473ffffffffffffffffffffffffffffffffffffffff169050600073ffffffffffffffffffffffffffffffffffffffff168173ffffffffffffffffffffffffffffffffffffffff16141561076a576040517f08c379a0000000000000000000000000000000000000000000000000000000008152600401610761906122eb565b60405180910390fd5b80915050919050565b60008073ffffffffffffffffffffffffffffffffffffffff168273ffffffffffffffffffffffffffffffffffffffff1614156107e4576040517f08c379a00000000000000000000000000000000000000000000000000000000081526004016107db906122cb565b60405180910390fd5b600360008373ffffffffffffffffffffffffffffffffffffffff1673ffffffffffffffffffffffffffffffffffffffff168152602001908152602001600020549050919050565b60606001805461083a90612661565b80601f016020809104026020016040519081016040528092919081815260200182805461086690612661565b80156108b35780601f10610888576101008083540402835291602001916108b3565b820191906000526020600020905b81548152906001019060200180831161089657829003601f168201915b5050505050905090565b60078060000154905081565b6108db6108d4610cc5565b83836110cb565b5050565b6108f06108ea610cc5565b83610d86565b61092f576040517f08c379a0000000000000000000000000000000000000000000000000000000008152600401610926906123cb565b60405180910390fd5b61093b84848484611238565b50505050565b606061094c82610c59565b61098b576040517f08c379a00000000000000000000000000000000000000000000000000000000081526004016109829061234b565b60405180910390fd5b60006006600084815260200190815260200160002080546109ab90612661565b80601f01602080910402602001604051908101604052809291908181526020018280546109d790612661565b8015610a245780601f106109f957610100808354040283529160200191610a24565b820191906000526020600020905b815481529060010190602001808311610a0757829003601f168201915b505050505090506000610a35611294565b9050600081511415610a4b578192505050610a8e565b600082511115610a80578082604051602001610a68929190612123565b60405160208183030381529060405292505050610a8e565b610a89846112ab565b925050505b919050565b6000600860009054906101000a900473ffffffffffffffffffffffffffffffffffffffff1673ffffffffffffffffffffffffffffffffffffffff168373ffffffffffffffffffffffffffffffffffffffff1614610b25576040517f08c379a0000000000000000000000000000000000000000000000000000000008152600401610b1c906123eb565b60405180910390fd5b610b2f6007611352565b6000610b3b6007611368565b9050610b478482611376565b610b518184611394565b8091505092915050565b6000600560008473ffffffffffffffffffffffffffffffffffffffff1673ffffffffffffffffffffffffffffffffffffffff16815260200190815260200160002060008373ffffffffffffffffffffffffffffffffffffffff1673ffffffffffffffffffffffffffffffffffffffff16815260200190815260200160002060009054906101000a900460ff16905092915050565b60007f01ffc9a7000000000000000000000000000000000000000000000000000000007bffffffffffffffffffffffffffffffffffffffffffffffffffffffff1916827bffffffffffffffffffffffffffffffffffffffffffffffffffffffff1916149050919050565b60008073ffffffffffffffffffffffffffffffffffffffff166002600084815260200190815260200160002060009054906101000a900473ffffffffffffffffffffffffffffffffffffffff1673ffffffffffffffffffffffffffffffffffffffff1614159050919050565b600033905090565b816004600083815260200190815260200160002060006101000a81548173ffffffffffffffffffffffffffffffffffffffff021916908373ffffffffffffffffffffffffffffffffffffffff160217905550808273ffffffffffffffffffffffffffffffffffffffff16610d40836106c1565b73ffffffffffffffffffffffffffffffffffffffff167f8c5be1e5ebec7d5bd14f71427d1e84f3dd0314c0f7b2291e5b200ac8c7c3b92560405160405180910390a45050565b6000610d9182610c59565b610dd0576040517f08c379a0000000000000000000000000000000000000000000000000000000008152600401610dc79061228b565b60405180910390fd5b6000610ddb836106c1565b90508073ffffffffffffffffffffffffffffffffffffffff168473ffffffffffffffffffffffffffffffffffffffff161480610e1d5750610e1c8185610b5b565b5b80610e5b57508373ffffffffffffffffffffffffffffffffffffffff16610e43846104a4565b73ffffffffffffffffffffffffffffffffffffffff16145b91505092915050565b8273ffffffffffffffffffffffffffffffffffffffff16610e84826106c1565b73ffffffffffffffffffffffffffffffffffffffff1614610eda576040517f08c379a0000000000000000000000000000000000000000000000000000000008152600401610ed19061220b565b60405180910390fd5b600073ffffffffffffffffffffffffffffffffffffffff168273ffffffffffffffffffffffffffffffffffffffff161415610f4a576040517f08c379a0000000000000000000000000000000000000000000000000000000008152600401610f419061224b565b60405180910390fd5b610f55838383611408565b610f60600082610ccd565b6001600360008573ffffffffffffffffffffffffffffffffffffffff1673ffffffffffffffffffffffffffffffffffffffff1681526020019081526020016000206000828254610fb09190612577565b925050819055506001600360008473ffffffffffffffffffffffffffffffffffffffff1673ffffffffffffffffffffffffffffffffffffffff168152602001908152602001600020600082825461100791906124f0565b92505081905550816002600083815260200190815260200160002060006101000a81548173ffffffffffffffffffffffffffffffffffffffff021916908373ffffffffffffffffffffffffffffffffffffffff160217905550808273ffffffffffffffffffffffffffffffffffffffff168473ffffffffffffffffffffffffffffffffffffffff167fddf252ad1be2c89b69c2b068fc378daa952ba7f163c4a11628f55a4df523b3ef60405160405180910390a46110c683838361140d565b505050565b8173ffffffffffffffffffffffffffffffffffffffff168373ffffffffffffffffffffffffffffffffffffffff16141561113a576040517f08c379a00000000000000000000000000000000000000000000000000000000081526004016111319061226b565b60405180910390fd5b80600560008573ffffffffffffffffffffffffffffffffffffffff1673ffffffffffffffffffffffffffffffffffffffff16815260200190815260200160002060008473ffffffffffffffffffffffffffffffffffffffff1673ffffffffffffffffffffffffffffffffffffffff16815260200190815260200160002060006101000a81548160ff0219169083151502179055508173ffffffffffffffffffffffffffffffffffffffff168373ffffffffffffffffffffffffffffffffffffffff167f17307eab39ab6107e8899845ad3d59bd9653f200f220920489ca2b5937696c318360405161122b91906121ae565b60405180910390a3505050565b611243848484610e64565b61124f84848484611412565b61128e576040517f08c379a0000000000000000000000000000000000000000000000000000000008152600401611285906121eb565b60405180910390fd5b50505050565b606060405180602001604052806000815250905090565b60606112b682610c59565b6112f5576040517f08c379a00000000000000000000000000000000000000000000000000000000081526004016112ec9061238b565b60405180910390fd5b60006112ff611294565b9050600081511161131f576040518060200160405280600081525061134a565b80611329846115a9565b60405160200161133a929190612123565b6040516020818303038152906040525b915050919050565b6001816000016000828254019250508190555050565b600081600001549050919050565b611390828260405180602001604052806000815250611756565b5050565b61139d82610c59565b6113dc576040517f08c379a00000000000000000000000000000000000000000000000000000000081526004016113d39061230b565b60405180910390fd5b806006600084815260200190815260200160002090805190602001906114039291906119ae565b505050565b505050565b505050565b60006114338473ffffffffffffffffffffffffffffffffffffffff166117b1565b1561159c578373ffffffffffffffffffffffffffffffffffffffff1663150b7a0261145c610cc5565b8786866040518563ffffffff1660e01b815260040161147e9493929190612162565b602060405180830381600087803b15801561149857600080fd5b505af19250505080156114c957506040513d601f19601f820116820180604052508101906114c69190611dae565b60015b61154c573d80600081146114f9576040519150601f19603f3d011682016040523d82523d6000602084013e6114fe565b606091505b50600081511415611544576040517f08c379a000000000000000000000000000000000000000000000000000000000815260040161153b906121eb565b60405180910390fd5b805181602001fd5b63150b7a0260e01b7bffffffffffffffffffffffffffffffffffffffffffffffffffffffff1916817bffffffffffffffffffffffffffffffffffffffffffffffffffffffff1916149150506115a1565b600190505b949350505050565b606060008214156115f1576040518060400160405280600181526020017f30000000000000000000000000000000000000000000000000000000000000008152509050611751565b600082905060005b6000821461162357808061160c906126c4565b915050600a8261161c9190612546565b91506115f9565b60008167ffffffffffffffff811115611665577f4e487b7100000000000000000000000000000000000000000000000000000000600052604160045260246000fd5b6040519080825280601f01601f1916602001820160405280156116975781602001600182028036833780820191505090505b5090505b6000851461174a576001826116b09190612577565b9150600a856116bf919061270d565b60306116cb91906124f0565b60f81b818381518110611707577f4e487b7100000000000000000000000000000000000000000000000000000000600052603260045260246000fd5b60200101907effffffffffffffffffffffffffffffffffffffffffffffffffffffffffffff1916908160001a905350600a856117439190612546565b945061169b565b8093505050505b919050565b61176083836117d4565b61176d6000848484611412565b6117ac576040517f08c379a00000000000000000000000000000000000000000000000000000000081526004016117a3906121eb565b60405180910390fd5b505050565b6000808273ffffffffffffffffffffffffffffffffffffffff163b119050919050565b600073ffffffffffffffffffffffffffffffffffffffff168273ffffffffffffffffffffffffffffffffffffffff161415611844576040517f08c379a000000000000000000000000000000000000000000000000000000000815260040161183b9061232b565b60405180910390fd5b61184d81610c59565b1561188d576040517f08c379a00000000000000000000000000000000000000000000000000000000081526004016118849061222b565b60405180910390fd5b61189960008383611408565b6001600360008473ffffffffffffffffffffffffffffffffffffffff1673ffffffffffffffffffffffffffffffffffffffff16815260200190815260200160002060008282546118e991906124f0565b92505081905550816002600083815260200190815260200160002060006101000a81548173ffffffffffffffffffffffffffffffffffffffff021916908373ffffffffffffffffffffffffffffffffffffffff160217905550808273ffffffffffffffffffffffffffffffffffffffff16600073ffffffffffffffffffffffffffffffffffffffff167fddf252ad1be2c89b69c2b068fc378daa952ba7f163c4a11628f55a4df523b3ef60405160405180910390a46119aa6000838361140d565b5050565b8280546119ba90612661565b90600052602060002090601f0160209004810192826119dc5760008555611a23565b82601f106119f557805160ff1916838001178555611a23565b82800160010185558215611a23579182015b82811115611a22578251825591602001919060010190611a07565b5b509050611a309190611a34565b5090565b5b80821115611a4d576000816000905550600101611a35565b5090565b6000611a64611a5f8461244b565b612426565b905082815260208101848484011115611a7c57600080fd5b611a8784828561261f565b509392505050565b6000611aa2611a9d8461247c565b612426565b905082815260208101848484011115611aba57600080fd5b611ac584828561261f565b509392505050565b600081359050611adc81612cb2565b92915050565b600081359050611af181612cc9565b92915050565b600081359050611b0681612ce0565b92915050565b600081519050611b1b81612ce0565b92915050565b600082601f830112611b3257600080fd5b8135611b42848260208601611a51565b91505092915050565b600082601f830112611b5c57600080fd5b8135611b6c848260208601611a8f565b91505092915050565b600081359050611b8481612cf7565b92915050565b600060208284031215611b9c57600080fd5b6000611baa84828501611acd565b91505092915050565b60008060408385031215611bc657600080fd5b6000611bd485828601611acd565b9250506020611be585828601611acd565b9150509250929050565b600080600060608486031215611c0457600080fd5b6000611c1286828701611acd565b9350506020611c2386828701611acd565b9250506040611c3486828701611b75565b9150509250925092565b60008060008060808587031215611c5457600080fd5b6000611c6287828801611acd565b9450506020611c7387828801611acd565b9350506040611c8487828801611b75565b925050606085013567ffffffffffffffff811115611ca157600080fd5b611cad87828801611b21565b91505092959194509250565b60008060408385031215611ccc57600080fd5b6000611cda85828601611acd565b9250506020611ceb85828601611ae2565b9150509250929050565b60008060408385031215611d0857600080fd5b6000611d1685828601611acd565b925050602083013567ffffffffffffffff811115611d3357600080fd5b611d3f85828601611b4b565b9150509250929050565b60008060408385031215611d5c57600080fd5b6000611d6a85828601611acd565b9250506020611d7b85828601611b75565b9150509250929050565b600060208284031215611d9757600080fd5b6000611da584828501611af7565b91505092915050565b600060208284031215611dc057600080fd5b6000611dce84828501611b0c565b91505092915050565b600060208284031215611de957600080fd5b6000611df784828501611b75565b91505092915050565b611e09816125ab565b82525050565b611e18816125bd565b82525050565b6000611e29826124ad565b611e3381856124c3565b9350611e4381856020860161262e565b611e4c816127fa565b840191505092915050565b6000611e62826124b8565b611e6c81856124d4565b9350611e7c81856020860161262e565b611e85816127fa565b840191505092915050565b6000611e9b826124b8565b611ea581856124e5565b9350611eb581856020860161262e565b80840191505092915050565b6000611ece6032836124d4565b9150611ed98261280b565b604082019050919050565b6000611ef16025836124d4565b9150611efc8261285a565b604082019050919050565b6000611f14601c836124d4565b9150611f1f826128a9565b602082019050919050565b6000611f376024836124d4565b9150611f42826128d2565b604082019050919050565b6000611f5a6019836124d4565b9150611f6582612921565b602082019050919050565b6000611f7d602c836124d4565b9150611f888261294a565b604082019050919050565b6000611fa06038836124d4565b9150611fab82612999565b604082019050919050565b6000611fc3602a836124d4565b9150611fce826129e8565b604082019050919050565b6000611fe66029836124d4565b9150611ff182612a37565b604082019050919050565b6000612009602e836124d4565b915061201482612a86565b604082019050919050565b600061202c6020836124d4565b915061203782612ad5565b602082019050919050565b600061204f6031836124d4565b915061205a82612afe565b604082019050919050565b6000612072602c836124d4565b915061207d82612b4d565b604082019050919050565b6000612095602f836124d4565b91506120a082612b9c565b604082019050919050565b60006120b86021836124d4565b91506120c382612beb565b604082019050919050565b60006120db6031836124d4565b91506120e682612c3a565b604082019050919050565b60006120fe6016836124d4565b915061210982612c89565b602082019050919050565b61211d81612615565b82525050565b600061212f8285611e90565b915061213b8284611e90565b91508190509392505050565b600060208201905061215c6000830184611e00565b92915050565b60006080820190506121776000830187611e00565b6121846020830186611e00565b6121916040830185612114565b81810360608301526121a38184611e1e565b905095945050505050565b60006020820190506121c36000830184611e0f565b92915050565b600060208201905081810360008301526121e38184611e57565b905092915050565b6000602082019050818103600083015261220481611ec1565b9050919050565b6000602082019050818103600083015261222481611ee4565b9050919050565b6000602082019050818103600083015261224481611f07565b9050919050565b6000602082019050818103600083015261226481611f2a565b9050919050565b6000602082019050818103600083015261228481611f4d565b9050919050565b600060208201905081810360008301526122a481611f70565b9050919050565b600060208201905081810360008301526122c481611f93565b9050919050565b600060208201905081810360008301526122e481611fb6565b9050919050565b6000602082019050818103600083015261230481611fd9565b9050919050565b6000602082019050818103600083015261232481611ffc565b9050919050565b600060208201905081810360008301526123448161201f565b9050919050565b6000602082019050818103600083015261236481612042565b9050919050565b6000602082019050818103600083015261238481612065565b9050919050565b600060208201905081810360008301526123a481612088565b9050919050565b600060208201905081810360008301526123c4816120ab565b9050919050565b600060208201905081810360008301526123e4816120ce565b9050919050565b60006020820190508181036000830152612404816120f1565b9050919050565b60006020820190506124206000830184612114565b92915050565b6000612430612441565b905061243c8282612693565b919050565b6000604051905090565b600067ffffffffffffffff821115612466576124656127cb565b5b61246f826127fa565b9050602081019050919050565b600067ffffffffffffffff821115612497576124966127cb565b5b6124a0826127fa565b9050602081019050919050565b600081519050919050565b600081519050919050565b600082825260208201905092915050565b600082825260208201905092915050565b600081905092915050565b60006124fb82612615565b915061250683612615565b9250827fffffffffffffffffffffffffffffffffffffffffffffffffffffffffffffffff0382111561253b5761253a61273e565b5b828201905092915050565b600061255182612615565b915061255c83612615565b92508261256c5761256b61276d565b5b828204905092915050565b600061258282612615565b915061258d83612615565b9250828210156125a05761259f61273e565b5b828203905092915050565b60006125b6826125f5565b9050919050565b60008115159050919050565b60007fffffffff0000000000000000000000000000000000000000000000000000000082169050919050565b600073ffffffffffffffffffffffffffffffffffffffff82169050919050565b6000819050919050565b82818337600083830152505050565b60005b8381101561264c578082015181840152602081019050612631565b8381111561265b576000848401525b50505050565b6000600282049050600182168061267957607f821691505b6020821081141561268d5761268c61279c565b5b50919050565b61269c826127fa565b810181811067ffffffffffffffff821117156126bb576126ba6127cb565b5b80604052505050565b60006126cf82612615565b91507fffffffffffffffffffffffffffffffffffffffffffffffffffffffffffffffff8214156127025761270161273e565b5b600182019050919050565b600061271882612615565b915061272383612615565b9250826127335761273261276d565b5b828206905092915050565b7f4e487b7100000000000000000000000000000000000000000000000000000000600052601160045260246000fd5b7f4e487b7100000000000000000000000000000000000000000000000000000000600052601260045260246000fd5b7f4e487b7100000000000000000000000000000000000000000000000000000000600052602260045260246000fd5b7f4e487b7100000000000000000000000000000000000000000000000000000000600052604160045260246000fd5b6000601f19601f8301169050919050565b7f4552433732313a207472616e7366657220746f206e6f6e20455243373231526560008201527f63656976657220696d706c656d656e7465720000000000000000000000000000602082015250565b7f4552433732313a207472616e736665722066726f6d20696e636f72726563742060008201527f6f776e6572000000000000000000000000000000000000000000000000000000602082015250565b7f4552433732313a20746f6b656e20616c7265616479206d696e74656400000000600082015250565b7f4552433732313a207472616e7366657220746f20746865207a65726f2061646460008201527f7265737300000000000000000000000000000000000000000000000000000000602082015250565b7f4552433732313a20617070726f766520746f2063616c6c657200000000000000600082015250565b7f4552433732313a206f70657261746f7220717565727920666f72206e6f6e657860008201527f697374656e7420746f6b656e0000000000000000000000000000000000000000602082015250565b7f4552433732313a20617070726f76652063616c6c6572206973206e6f74206f7760008201527f6e6572206e6f7220617070726f76656420666f7220616c6c0000000000000000602082015250565b7f4552433732313a2062616c616e636520717565727920666f7220746865207a6560008201527f726f206164647265737300000000000000000000000000000000000000000000602082015250565b7f4552433732313a206f776e657220717565727920666f72206e6f6e657869737460008201527f656e7420746f6b656e0000000000000000000000000000000000000000000000602082015250565b7f45524337323155524953746f726167653a2055524920736574206f66206e6f6e60008201527f6578697374656e7420746f6b656e000000000000000000000000000000000000602082015250565b7f4552433732313a206d696e7420746f20746865207a65726f2061646472657373600082015250565b7f45524337323155524953746f726167653a2055524920717565727920666f722060008201527f6e6f6e6578697374656e7420746f6b656e000000000000000000000000000000602082015250565b7f4552433732313a20617070726f76656420717565727920666f72206e6f6e657860008201527f697374656e7420746f6b656e0000000000000000000000000000000000000000602082015250565b7f4552433732314d657461646174613a2055524920717565727920666f72206e6f60008201527f6e6578697374656e7420746f6b656e0000000000000000000000000000000000602082015250565b7f4552433732313a20617070726f76616c20746f2063757272656e74206f776e6560008201527f7200000000000000000000000000000000000000000000000000000000000000602082015250565b7f4552433732313a207472616e736665722063616c6c6572206973206e6f74206f60008201527f776e6572206e6f7220617070726f766564000000000000000000000000000000602082015250565b7f596f7520617265206e6f7420746865206f776e65722e00000000000000000000600082015250565b612cbb816125ab565b8114612cc657600080fd5b50565b612cd2816125bd565b8114612cdd57600080fd5b50565b612ce9816125c9565b8114612cf457600080fd5b50565b612d0081612615565b8114612d0b57600080fd5b5056fea264697066735822122063bae6f3c68917a5f9a6dbfb96116a002e5e6aff0f37e54d74d1a92817861c5e64736f6c63430008040033",
  "linkReferences": {},
  "deployedLinkReferences": {}
}